{
  "_format": "hh-sol-artifact-1",
  "contractName": "Museum",
  "sourceName": "contracts/museum.sol",
  "abi": [
    {
      "inputs": [],
      "stateMutability": "nonpayable",
      "type": "constructor"
    },
    {
      "inputs": [
        {
          "internalType": "address",
          "name": "owner",
          "type": "address"
        }
      ],
      "name": "OwnableInvalidOwner",
      "type": "error"
    },
    {
      "inputs": [
        {
          "internalType": "address",
          "name": "account",
          "type": "address"
        }
      ],
      "name": "OwnableUnauthorizedAccount",
      "type": "error"
    },
    {
      "anonymous": false,
      "inputs": [
        {
          "indexed": true,
          "internalType": "address",
          "name": "user",
          "type": "address"
        }
      ],
      "name": "EntrancePaid",
      "type": "event"
    },
    {
      "anonymous": false,
      "inputs": [
        {
          "indexed": true,
          "internalType": "address",
          "name": "previousOwner",
          "type": "address"
        },
        {
          "indexed": true,
          "internalType": "address",
          "name": "newOwner",
          "type": "address"
        }
      ],
      "name": "OwnershipTransferred",
      "type": "event"
    },
    {
      "inputs": [],
      "name": "ENTRANCE_FEE",
      "outputs": [
        {
          "internalType": "uint256",
          "name": "",
          "type": "uint256"
        }
      ],
      "stateMutability": "view",
      "type": "function"
    },
    {
      "inputs": [
        {
          "internalType": "address",
          "name": "",
          "type": "address"
        }
      ],
      "name": "hasPaidEntrance",
      "outputs": [
        {
          "internalType": "bool",
          "name": "",
          "type": "bool"
        }
      ],
      "stateMutability": "view",
      "type": "function"
    },
    {
      "inputs": [
        {
          "internalType": "uint256",
          "name": "",
          "type": "uint256"
        }
      ],
      "name": "imageUrls",
      "outputs": [
        {
          "internalType": "string",
          "name": "",
          "type": "string"
        }
      ],
      "stateMutability": "view",
      "type": "function"
    },
    {
      "inputs": [],
      "name": "owner",
      "outputs": [
        {
          "internalType": "address",
          "name": "",
          "type": "address"
        }
      ],
      "stateMutability": "view",
      "type": "function"
    },
    {
      "inputs": [],
      "name": "payEntrance",
      "outputs": [],
      "stateMutability": "payable",
      "type": "function"
    },
    {
      "inputs": [],
      "name": "renounceOwnership",
      "outputs": [],
      "stateMutability": "nonpayable",
      "type": "function"
    },
    {
      "inputs": [
        {
          "internalType": "address",
          "name": "newOwner",
          "type": "address"
        }
      ],
      "name": "transferOwnership",
      "outputs": [],
      "stateMutability": "nonpayable",
      "type": "function"
    },
    {
      "inputs": [],
      "name": "viewImages",
      "outputs": [
        {
          "internalType": "string[]",
          "name": "",
          "type": "string[]"
        }
      ],
      "stateMutability": "view",
      "type": "function"
    }
  ],
  "bytecode": "0x60806040526040518060600160405280604051806080016040528060508152602001620013fd6050913981526020016040518060800160405280605081526020016200135d605091398152602001604051806080016040528060508152602001620013ad6050913981525060029060036200007c929190620001dd565b503480156200008a57600080fd5b5033600073ffffffffffffffffffffffffffffffffffffffff168173ffffffffffffffffffffffffffffffffffffffff1603620001015760006040517f1e4fbdf7000000000000000000000000000000000000000000000000000000008152600401620000f891906200030f565b60405180910390fd5b62000112816200011960201b60201c565b506200068d565b60008060009054906101000a900473ffffffffffffffffffffffffffffffffffffffff169050816000806101000a81548173ffffffffffffffffffffffffffffffffffffffff021916908373ffffffffffffffffffffffffffffffffffffffff1602179055508173ffffffffffffffffffffffffffffffffffffffff168173ffffffffffffffffffffffffffffffffffffffff167f8be0079c531659141344cd1fd0a4f28419497f9722a3daafe3b4186f6b6457e060405160405180910390a35050565b8280548282559060005260206000209081019282156200022a579160200282015b8281111562000229578251829081620002189190620005a6565b5091602001919060010190620001fe565b5b5090506200023991906200023d565b5090565b5b8082111562000261576000818162000257919062000265565b506001016200023e565b5090565b508054620002739062000395565b6000825580601f10620002875750620002a8565b601f016020900490600052602060002090810190620002a79190620002ab565b5b50565b5b80821115620002c6576000816000905550600101620002ac565b5090565b600073ffffffffffffffffffffffffffffffffffffffff82169050919050565b6000620002f782620002ca565b9050919050565b6200030981620002ea565b82525050565b6000602082019050620003266000830184620002fe565b92915050565b600081519050919050565b7f4e487b7100000000000000000000000000000000000000000000000000000000600052604160045260246000fd5b7f4e487b7100000000000000000000000000000000000000000000000000000000600052602260045260246000fd5b60006002820490506001821680620003ae57607f821691505b602082108103620003c457620003c362000366565b5b50919050565b60008190508160005260206000209050919050565b60006020601f8301049050919050565b600082821b905092915050565b6000600883026200042e7fffffffffffffffffffffffffffffffffffffffffffffffffffffffffffffffff82620003ef565b6200043a8683620003ef565b95508019841693508086168417925050509392505050565b6000819050919050565b6000819050919050565b600062000487620004816200047b8462000452565b6200045c565b62000452565b9050919050565b6000819050919050565b620004a38362000466565b620004bb620004b2826200048e565b848454620003fc565b825550505050565b600090565b620004d2620004c3565b620004df81848462000498565b505050565b5b818110156200050757620004fb600082620004c8565b600181019050620004e5565b5050565b601f82111562000556576200052081620003ca565b6200052b84620003df565b810160208510156200053b578190505b620005536200054a85620003df565b830182620004e4565b50505b505050565b600082821c905092915050565b60006200057b600019846008026200055b565b1980831691505092915050565b600062000596838362000568565b9150826002028217905092915050565b620005b1826200032c565b67ffffffffffffffff811115620005cd57620005cc62000337565b5b620005d9825462000395565b620005e68282856200050b565b600060209050601f8311600181146200061e576000841562000609578287015190505b62000615858262000588565b86555062000685565b601f1984166200062e86620003ca565b60005b82811015620006585784890151825560018201915060208501945060208101905062000631565b8683101562000678578489015162000674601f89168262000568565b8355505b6001600288020188555050505b505050505050565b610cc0806200069d6000396000f3fe60806040526004361061007b5760003560e01c80638da5cb5b1161004e5780638da5cb5b1461013c578063c1e9aa4514610167578063f2fde38b14610192578063fbf1a81a146101bb5761007b565b80632373542b146100805780634f5d9779146100bd5780635f528ee8146100e8578063715018a614610125575b600080fd5b34801561008c57600080fd5b506100a760048036038101906100a291906107ec565b6101c5565b6040516100b49190610834565b60405180910390f35b3480156100c957600080fd5b506100d26101e5565b6040516100df91906109a1565b60405180910390f35b3480156100f457600080fd5b5061010f600480360381019061010a91906109f9565b61034a565b60405161011c9190610a70565b60405180910390f35b34801561013157600080fd5b5061013a6103f6565b005b34801561014857600080fd5b5061015161040a565b60405161015e9190610aa1565b60405180910390f35b34801561017357600080fd5b5061017c610433565b6040516101899190610acb565b60405180910390f35b34801561019e57600080fd5b506101b960048036038101906101b491906107ec565b61043e565b005b6101c36104c4565b005b60016020528060005260406000206000915054906101000a900460ff1681565b6060600160003373ffffffffffffffffffffffffffffffffffffffff1673ffffffffffffffffffffffffffffffffffffffff16815260200190815260200160002060009054906101000a900460ff16610273576040517f08c379a000000000000000000000000000000000000000000000000000000000815260040161026a90610b32565b60405180910390fd5b6002805480602002602001604051908101604052809291908181526020016000905b828210156103415783829060005260206000200180546102b490610b81565b80601f01602080910402602001604051908101604052809291908181526020018280546102e090610b81565b801561032d5780601f106103025761010080835404028352916020019161032d565b820191906000526020600020905b81548152906001019060200180831161031057829003601f168201915b505050505081526020019060010190610295565b50505050905090565b6002818154811061035a57600080fd5b90600052602060002001600091509050805461037590610b81565b80601f01602080910402602001604051908101604052809291908181526020018280546103a190610b81565b80156103ee5780601f106103c3576101008083540402835291602001916103ee565b820191906000526020600020905b8154815290600101906020018083116103d157829003601f168201915b505050505081565b6103fe610636565b61040860006106bd565b565b60008060009054906101000a900473ffffffffffffffffffffffffffffffffffffffff16905090565b662386f26fc1000081565b610446610636565b600073ffffffffffffffffffffffffffffffffffffffff168173ffffffffffffffffffffffffffffffffffffffff16036104b85760006040517f1e4fbdf70000000000000000000000000000000000000000000000000000000081526004016104af9190610aa1565b60405180910390fd5b6104c1816106bd565b50565b662386f26fc10000341461050d576040517f08c379a000000000000000000000000000000000000000000000000000000000815260040161050490610bfe565b60405180910390fd5b600160003373ffffffffffffffffffffffffffffffffffffffff1673ffffffffffffffffffffffffffffffffffffffff16815260200190815260200160002060009054906101000a900460ff161561059a576040517f08c379a000000000000000000000000000000000000000000000000000000000815260040161059190610c6a565b60405180910390fd5b60018060003373ffffffffffffffffffffffffffffffffffffffff1673ffffffffffffffffffffffffffffffffffffffff16815260200190815260200160002060006101000a81548160ff0219169083151502179055503373ffffffffffffffffffffffffffffffffffffffff167ff4e2c5b003452cfd3650dde69515059b4495bc9e917708089ee55790971d2f7e60405160405180910390a2565b61063e610781565b73ffffffffffffffffffffffffffffffffffffffff1661065c61040a565b73ffffffffffffffffffffffffffffffffffffffff16146106bb5761067f610781565b6040517f118cdaa70000000000000000000000000000000000000000000000000000000081526004016106b29190610aa1565b60405180910390fd5b565b60008060009054906101000a900473ffffffffffffffffffffffffffffffffffffffff169050816000806101000a81548173ffffffffffffffffffffffffffffffffffffffff021916908373ffffffffffffffffffffffffffffffffffffffff1602179055508173ffffffffffffffffffffffffffffffffffffffff168173ffffffffffffffffffffffffffffffffffffffff167f8be0079c531659141344cd1fd0a4f28419497f9722a3daafe3b4186f6b6457e060405160405180910390a35050565b600033905090565b600080fd5b600073ffffffffffffffffffffffffffffffffffffffff82169050919050565b60006107b98261078e565b9050919050565b6107c9816107ae565b81146107d457600080fd5b50565b6000813590506107e6816107c0565b92915050565b60006020828403121561080257610801610789565b5b6000610810848285016107d7565b91505092915050565b60008115159050919050565b61082e81610819565b82525050565b60006020820190506108496000830184610825565b92915050565b600081519050919050565b600082825260208201905092915050565b6000819050602082019050919050565b600081519050919050565b600082825260208201905092915050565b60005b838110156108b557808201518184015260208101905061089a565b60008484015250505050565b6000601f19601f8301169050919050565b60006108dd8261087b565b6108e78185610886565b93506108f7818560208601610897565b610900816108c1565b840191505092915050565b600061091783836108d2565b905092915050565b6000602082019050919050565b60006109378261084f565b610941818561085a565b9350836020820285016109538561086b565b8060005b8581101561098f5784840389528151610970858261090b565b945061097b8361091f565b925060208a01995050600181019050610957565b50829750879550505050505092915050565b600060208201905081810360008301526109bb818461092c565b905092915050565b6000819050919050565b6109d6816109c3565b81146109e157600080fd5b50565b6000813590506109f3816109cd565b92915050565b600060208284031215610a0f57610a0e610789565b5b6000610a1d848285016109e4565b91505092915050565b600082825260208201905092915050565b6000610a428261087b565b610a4c8185610a26565b9350610a5c818560208601610897565b610a65816108c1565b840191505092915050565b60006020820190508181036000830152610a8a8184610a37565b905092915050565b610a9b816107ae565b82525050565b6000602082019050610ab66000830184610a92565b92915050565b610ac5816109c3565b82525050565b6000602082019050610ae06000830184610abc565b92915050565b7f456e7472616e636520666565206e6f7420706169640000000000000000000000600082015250565b6000610b1c601583610a26565b9150610b2782610ae6565b602082019050919050565b60006020820190508181036000830152610b4b81610b0f565b9050919050565b7f4e487b7100000000000000000000000000000000000000000000000000000000600052602260045260246000fd5b60006002820490506001821680610b9957607f821691505b602082108103610bac57610bab610b52565b5b50919050565b7f496e636f727265637420656e7472616e63652066656520616d6f756e74000000600082015250565b6000610be8601d83610a26565b9150610bf382610bb2565b602082019050919050565b60006020820190508181036000830152610c1781610bdb565b9050919050565b7f456e7472616e63652066656520616c7265616479207061696400000000000000600082015250565b6000610c54601983610a26565b9150610c5f82610c1e565b602082019050919050565b60006020820190508181036000830152610c8381610c47565b905091905056fea2646970667358221220ad403f639ee2d85a11b912436b71b4db59fca1e85b56f76745b9792ea229ae7d64736f6c6343000814003368747470733a2f2f676174657761792e70696e6174612e636c6f75642f697066732f516d6354584a484e53636f7a61526a70625742536135696e316f5376654e5a3279733266716167755742576e4d5868747470733a2f2f676174657761792e70696e6174612e636c6f75642f697066732f516d6168467639335759426d3435356f3669786a6256664a466539786765506e5556514736466e75337970344d3468747470733a2f2f676174657761792e70696e6174612e636c6f75642f697066732f516d5353724e665153794771583950337638556954644e4173367653477a74757159577652334545785234445841",
  "linkReferences": {},
  "deployedLinkReferences": {}
}