{
  "_format": "hh-sol-artifact-1",
  "contractName": "Museum",
  "sourceName": "contracts/museum.sol",
  "abi": [
    {
      "anonymous": false,
      "inputs": [
        {
          "indexed": true,
          "internalType": "address",
          "name": "user",
          "type": "address"
        }
      ],
      "name": "EntrancePaid",
      "type": "event"
    },
    {
      "inputs": [],
      "name": "ENTRANCE_FEE",
      "outputs": [
        {
          "internalType": "uint256",
          "name": "",
          "type": "uint256"
        }
      ],
      "stateMutability": "view",
      "type": "function"
    },
    {
      "inputs": [
        {
          "internalType": "address",
          "name": "",
          "type": "address"
        }
      ],
      "name": "hasPaidEntrance",
      "outputs": [
        {
          "internalType": "bool",
          "name": "",
          "type": "bool"
        }
      ],
      "stateMutability": "view",
      "type": "function"
    },
    {
      "inputs": [
        {
          "internalType": "uint256",
          "name": "",
          "type": "uint256"
        }
      ],
      "name": "imageUrls",
      "outputs": [
        {
          "internalType": "string",
          "name": "",
          "type": "string"
        }
      ],
      "stateMutability": "view",
      "type": "function"
    },
    {
      "inputs": [],
      "name": "payEntrance",
      "outputs": [],
      "stateMutability": "payable",
      "type": "function"
    },
    {
      "inputs": [],
      "name": "viewImages",
      "outputs": [
        {
          "internalType": "string[]",
          "name": "",
          "type": "string[]"
        }
      ],
      "stateMutability": "view",
      "type": "function"
    }
  ],
  "bytecode": "0x610160604052605060e08181526080918291906108a6610100398152602001604051806080016040528060508152602001610806605091398152602001604051806080016040528060508152602001610856605091399052610065906001906003610078565b5034801561007257600080fd5b5061029b565b8280548282559060005260206000209081019282156100be579160200282015b828111156100be57825182906100ae90826101dc565b5091602001919060010190610098565b506100ca9291506100ce565b5090565b808211156100ca5760006100e282826100eb565b506001016100ce565b5080546100f790610153565b6000825580601f10610107575050565b601f0160209004906000526020600020908101906101259190610128565b50565b5b808211156100ca5760008155600101610129565b634e487b7160e01b600052604160045260246000fd5b600181811c9082168061016757607f821691505b60208210810361018757634e487b7160e01b600052602260045260246000fd5b50919050565b601f8211156101d757600081815260208120601f850160051c810160208610156101b45750805b601f850160051c820191505b818110156101d3578281556001016101c0565b5050505b505050565b81516001600160401b038111156101f5576101f561013d565b610209816102038454610153565b8461018d565b602080601f83116001811461023e57600084156102265750858301515b600019600386901b1c1916600185901b1785556101d3565b600085815260208120601f198616915b8281101561026d5788860151825594840194600190910190840161024e565b508582101561028b5787850151600019600388901b60f8161c191681555b5050505050600190811b01905550565b61055c806102aa6000396000f3fe60806040526004361061004a5760003560e01c80632373542b1461004f5780634f5d9779146100945780635f528ee8146100b6578063c1e9aa45146100e3578063fbf1a81a14610108575b600080fd5b34801561005b57600080fd5b5061007f61006a3660046103e8565b60006020819052908152604090205460ff1681565b60405190151581526020015b60405180910390f35b3480156100a057600080fd5b506100a9610112565b60405161008b919061045e565b3480156100c257600080fd5b506100d66100d13660046104c0565b610248565b60405161008b91906104d9565b3480156100ef57600080fd5b506100fa620186a081565b60405190815260200161008b565b6101106102f4565b005b3360009081526020819052604090205460609060ff166101715760405162461bcd60e51b8152602060048201526015602482015274115b9d1c985b98d948199959481b9bdd081c185a59605a1b60448201526064015b60405180910390fd5b6001805480602002602001604051908101604052809291908181526020016000905b8282101561023f5783829060005260206000200180546101b2906104ec565b80601f01602080910402602001604051908101604052809291908181526020018280546101de906104ec565b801561022b5780601f106102005761010080835404028352916020019161022b565b820191906000526020600020905b81548152906001019060200180831161020e57829003601f168201915b505050505081526020019060010190610193565b50505050905090565b6001818154811061025857600080fd5b906000526020600020016000915090508054610273906104ec565b80601f016020809104026020016040519081016040528092919081815260200182805461029f906104ec565b80156102ec5780601f106102c1576101008083540402835291602001916102ec565b820191906000526020600020905b8154815290600101906020018083116102cf57829003601f168201915b505050505081565b620186a034146103465760405162461bcd60e51b815260206004820152601d60248201527f496e636f727265637420656e7472616e63652066656520616d6f756e740000006044820152606401610168565b3360009081526020819052604090205460ff16156103a65760405162461bcd60e51b815260206004820152601960248201527f456e7472616e63652066656520616c72656164792070616964000000000000006044820152606401610168565b33600081815260208190526040808220805460ff19166001179055517ff4e2c5b003452cfd3650dde69515059b4495bc9e917708089ee55790971d2f7e9190a2565b6000602082840312156103fa57600080fd5b81356001600160a01b038116811461041157600080fd5b9392505050565b6000815180845260005b8181101561043e57602081850181015186830182015201610422565b506000602082860101526020601f19601f83011685010191505092915050565b6000602080830181845280855180835260408601915060408160051b870101925083870160005b828110156104b357603f198886030184526104a1858351610418565b94509285019290850190600101610485565b5092979650505050505050565b6000602082840312156104d257600080fd5b5035919050565b6020815260006104116020830184610418565b600181811c9082168061050057607f821691505b60208210810361052057634e487b7160e01b600052602260045260246000fd5b5091905056fea2646970667358221220a143f1f685e2f6da51a5be52aac7d0e428d0aa6d35310f94d51709efc7df898764736f6c6343000814003368747470733a2f2f676174657761792e70696e6174612e636c6f75642f697066732f516d6354584a484e53636f7a61526a70625742536135696e316f5376654e5a3279733266716167755742576e4d5868747470733a2f2f676174657761792e70696e6174612e636c6f75642f697066732f516d6168467639335759426d3435356f3669786a6256664a466539786765506e5556514736466e75337970344d3468747470733a2f2f676174657761792e70696e6174612e636c6f75642f697066732f516d5353724e665153794771583950337638556954644e4173367653477a74757159577652334545785234445841",
  "linkReferences": {},
  "deployedLinkReferences": {}
}