{
  "_format": "hh-sol-artifact-1",
  "contractName": "Museum",
  "sourceName": "contracts/museum.sol",
  "abi": [
    {
      "anonymous": false,
      "inputs": [
        {
          "indexed": true,
          "internalType": "address",
          "name": "user",
          "type": "address"
        }
      ],
      "name": "EntrancePaid",
      "type": "event"
    },
    {
      "inputs": [],
      "name": "ENTRANCE_FEE",
      "outputs": [
        {
          "internalType": "uint256",
          "name": "",
          "type": "uint256"
        }
      ],
      "stateMutability": "view",
      "type": "function"
    },
    {
      "inputs": [
        {
          "internalType": "uint256",
          "name": "",
          "type": "uint256"
        }
      ],
      "name": "imageUrls",
      "outputs": [
        {
          "internalType": "string",
          "name": "",
          "type": "string"
        }
      ],
      "stateMutability": "view",
      "type": "function"
    },
    {
      "inputs": [],
      "name": "payEntrance",
      "outputs": [],
      "stateMutability": "payable",
      "type": "function"
    },
    {
      "inputs": [],
      "name": "viewImages",
      "outputs": [
        {
          "internalType": "string[]",
          "name": "",
          "type": "string[]"
        }
      ],
      "stateMutability": "view",
      "type": "function"
    }
  ],
  "bytecode": "0x610160604052605060e081815260809182919061076e6101003981526020016040518060800160405280605081526020016106ce60509139815260200160405180608001604052806050815260200161071e605091399052610065906000906003610078565b5034801561007257600080fd5b5061029b565b8280548282559060005260206000209081019282156100be579160200282015b828111156100be57825182906100ae90826101dc565b5091602001919060010190610098565b506100ca9291506100ce565b5090565b808211156100ca5760006100e282826100eb565b506001016100ce565b5080546100f790610153565b6000825580601f10610107575050565b601f0160209004906000526020600020908101906101259190610128565b50565b5b808211156100ca5760008155600101610129565b634e487b7160e01b600052604160045260246000fd5b600181811c9082168061016757607f821691505b60208210810361018757634e487b7160e01b600052602260045260246000fd5b50919050565b601f8211156101d757600081815260208120601f850160051c810160208610156101b45750805b601f850160051c820191505b818110156101d3578281556001016101c0565b5050505b505050565b81516001600160401b038111156101f5576101f561013d565b610209816102038454610153565b8461018d565b602080601f83116001811461023e57600084156102265750858301515b600019600386901b1c1916600185901b1785556101d3565b600085815260208120601f198616915b8281101561026d5788860151825594840194600190910190840161024e565b508582101561028b5787850151600019600388901b60f8161c191681555b5050505050600190811b01905550565b610424806102aa6000396000f3fe60806040526004361061003f5760003560e01c80634f5d9779146100445780635f528ee81461006f578063c1e9aa451461009c578063fbf1a81a146100c4575b600080fd5b34801561005057600080fd5b506100596100ce565b604051610066919061031f565b60405180910390f35b34801561007b57600080fd5b5061008f61008a366004610381565b6101a7565b604051610066919061039a565b3480156100a857600080fd5b506100b6655af3107a400081565b604051908152602001610066565b6100cc610253565b005b60606000805480602002602001604051908101604052809291908181526020016000905b8282101561019e578382906000526020600020018054610111906103b4565b80601f016020809104026020016040519081016040528092919081815260200182805461013d906103b4565b801561018a5780601f1061015f5761010080835404028352916020019161018a565b820191906000526020600020905b81548152906001019060200180831161016d57829003601f168201915b5050505050815260200190600101906100f2565b50505050905090565b600081815481106101b757600080fd5b9060005260206000200160009150905080546101d2906103b4565b80601f01602080910402602001604051908101604052809291908181526020018280546101fe906103b4565b801561024b5780601f106102205761010080835404028352916020019161024b565b820191906000526020600020905b81548152906001019060200180831161022e57829003601f168201915b505050505081565b655af3107a400034146102ac5760405162461bcd60e51b815260206004820152601d60248201527f496e636f727265637420656e7472616e63652066656520616d6f756e74000000604482015260640160405180910390fd5b60405133907ff4e2c5b003452cfd3650dde69515059b4495bc9e917708089ee55790971d2f7e90600090a2565b6000815180845260005b818110156102ff576020818501810151868301820152016102e3565b506000602082860101526020601f19601f83011685010191505092915050565b6000602080830181845280855180835260408601915060408160051b870101925083870160005b8281101561037457603f198886030184526103628583516102d9565b94509285019290850190600101610346565b5092979650505050505050565b60006020828403121561039357600080fd5b5035919050565b6020815260006103ad60208301846102d9565b9392505050565b600181811c908216806103c857607f821691505b6020821081036103e857634e487b7160e01b600052602260045260246000fd5b5091905056fea2646970667358221220bc455b958f5dbe586b65a94cb5943f4cd0c39fc6c463277f92bbd90c1e3b5c8664736f6c6343000814003368747470733a2f2f676174657761792e70696e6174612e636c6f75642f697066732f516d6354584a484e53636f7a61526a70625742536135696e316f5376654e5a3279733266716167755742576e4d5868747470733a2f2f676174657761792e70696e6174612e636c6f75642f697066732f516d6168467639335759426d3435356f3669786a6256664a466539786765506e5556514736466e75337970344d3468747470733a2f2f676174657761792e70696e6174612e636c6f75642f697066732f516d5353724e665153794771583950337638556954644e4173367653477a74757159577652334545785234445841",
  "linkReferences": {},
  "deployedLinkReferences": {}
}